:100000000C942A000C9447000C9447000C94470071
:100010000C9447000C9447000C9447000C94470044
:100020000C9447000C9447000C9447000C94470034
:100030000C9447000C9477030C9447000C94A00395
:100040000C9447000C9447000C9447000C94470014
:100050000C94470011241FBECFE5D8E0DEBFCDBF12
:1000600010E0A0E6B0E0E8E1F8E002C005900D92F3
:10007000A83AB107D9F710E0A8EAB0E001C01D9294
:10008000AA3AB107E1F70E94CB030C940A040C943E
:100090000000EF92FF920F93DF93CF93CDB7DEB7BF
:1000A00060970FB6F894DEBF0FBECDBFA82F002318
:1000B00009F461C07E010894E11CF11C88E0F7019D
:1000C00011928A95E9F729833A834B835C836D8388
:1000D0007E83AF83988780E2801BE82FFF27E7FDB0
:1000E000F0954D815E816F817885181684F01D86AC
:1000F0001E861F86188A882799278E1B9F0B04C08F
:1001000076956795579547958A95D2F728C0202F01
:10011000332727FD3095DB01CA01022E04C0B695B6
:10012000A795979587950A94D2F78D879E87AF8775
:10013000B88B04C0440F551F661F771FEA95D2F78E
:1001400089819A81AB81BC8104C0B695A7959795AA
:1001500087952A95D2F7482B592B6A2B7B2B4987F9
:100160005A876B877C8729853A854B855C856D85A9
:100170007E85AF8598898A2F60960FB6F894DEBF8A
:100180000FBECDBFCF91DF910F91FF90EF900895FB
:10019000EF92FF920F93DF93CF93CDB7DEB76097C7
:1001A0000FB6F894DEBF0FBECDBFA82F002309F411
:1001B00061C07E010894E11CF11C88E0F7011192F6
:1001C0008A95E9F729833A834B835C836D837E8329
:1001D000AF83988780E2801BE82FFF27E7FDF0952B
:1001E00049815A816B817C81181684F019861A86A0
:1001F0001B861C86882799278E1B9F0B04C0440FE3
:10020000551F661F771F8A95D2F728C0202F3327E6
:1002100027FD3095DB01CA01022E04C0880F991F0B
:10022000AA1FBB1F0A94D2F789879A87AB87BC871E
:1002300004C07695679557954795EA95D2F78D81D5
:100240009E81AF81B88504C0880F991FAA1FBB1F6C
:100250002A95D2F7482B592B6A2B7B2B4D875E872B
:100260006F87788B29853A854B855C856D857E8582
:10027000AF8598898A2F60960FB6F894DEBF0FBEBF
:10028000CDBFCF91DF910F91FF90EF90089586E45D
:1002900090E0622F0E94E10280E197E228EC30E0DA
:1002A000F9013197F1F70197D9F708958F929F924D
:1002B000AF92BF92CF92DF92EF92FF920F931F9374
:1002C000CF93DF93022FA32EB42EC52ED62EE72E6A
:1002D000F82E192FCAE5D0E088EC882E912CCE019B
:1002E000602F0E94E10280E197E2F4013197F1F77B
:1002F0000197D9F7C136D105A9F0202F3A2D4B2D02
:100300005C2D6D2D7E2D8F2D912F08E00E944900D0
:10031000022FA32EB42EC52ED62EE72EF82E192F7F
:100320002196DDCFDF91CF911F910F91FF90EF903C
:10033000DF90CF90BF90AF909F908F90089586E40C
:1003400090E00E94E902282FE0E1F7E288EC90E0DB
:10035000DC011197F1F73197D9F730E040E050E038
:1003600060E070E080E090E008954F925F927F92AD
:100370008F929F92AF92BF92CF92DF92EF92FF92B5
:100380000F931F93CF93DF93CAE5D0E010E0DD24F5
:10039000CC24BB24AA24992488247724EE24FF2487
:1003A00098EC492E512CCE010E94E902E0E1F7E2DF
:1003B000D2011197F1F73197D9F7282F30E040E0BB
:1003C00050E060E070E080E090E00E2D0E94C800F8
:1003D000122BD32AC42AB52AA62A972A882A792A30
:1003E00088E090E0E80EF91EC136D10511F02196A3
:1003F000DACF212F3D2D4C2D5B2D6A2D792D882DA7
:10040000972DDF91CF911F910F91FF90EF90DF908B
:10041000CF90BF90AF909F908F907F905F904F90C4
:100420000895382FE82FE695E695E6956623B1F016
:10043000613041F5F0E0EE0FFF1FE856FF4F0190ED
:10044000F081E02D2081377081E090E002C0880FBC
:10045000991F3A95E2F7282B20830895F0E0EE0FDC
:10046000FF1FE856FF4F0190F081E02D208137708B
:1004700081E090E002C0880F991F3A95E2F78095DD
:10048000822380830895EF92FF921F93CF93DF938F
:1004900010E0C0E0D0E051E0E52EF12C212F2695B0
:1004A00026952695812F90E0FC01E05AFF4FE081D0
:1004B000E13031F0E130C8F0E23009F049C02EC03F
:1004C000E22FF0E0EE0FFF1FE056FF4F0190F081AA
:1004D000E02D208187709070A70102C0440F551F46
:1004E0008A95E2F7242B208333C0E22FF0E0EE0F51
:1004F000FF1FE056FF4F0190F081E02D20818770B3
:100500009070A70102C0440F551F8A95E2F7CA01F7
:10051000809582238083812F61E018C0E22FF0E074
:10052000EE0FFF1FE056FF4F0190F081E02D20817C
:1005300087709070A70102C0440F551F8A95E2F79B
:10054000CA01809582238083812F60E00E9411027E
:100550001F5F2196C032D10509F0A0CFDF91CF9166
:100560001F91FF90EF900895282FE82FE695E695CC
:10057000E695F0E0EE0FFF1FE057FF4F0190F0818E
:10058000E02D808190E0277002C0959587952A958F
:10059000E2F781700895E82FF0E0EE0FFF1FE857B3
:1005A000FF4F0190F081E02D60830895E82FF0E087
:1005B000EE0FFF1FE058FF4F0190F081E02D80818A
:1005C0000895E299FECF9FBB8EBB6DBBE29AE19A84
:1005D0000895E299FECF9FBB8EBBE09A8DB308953C
:1005E00082E093E09093A9008093A80008959FB7BC
:1005F0009F779FBF0E94320380E00E94AE030E945B
:10060000AA03FFCF0E946603803329F0803B49F0A4
:10061000893051F402C080E301C089E00E94F702F2
:10062000089580EB0E94F702089581E090E00E9417
:10063000E90220E137E248EC50E0FA013197F1F7A6
:1006400021503040D1F7803329F0803B49F0893088
:1006500019F404C080E3089588EF089589E00895AF
:1006600080EB0895803369F0813318F48930B1F458
:100670000CC0803B71F0883F89F481E090E068EF26
:100680000BC081E090E060E307C081E090E069E0AA
:1006900003C081E090E060EB0E94E10280E197E21C
:1006A00028EC30E0F9013197F1F70197D9F7089577
:1006B00080B5826080BD80B5846080BD10BC83E35E
:1006C00089B9569A539A579A549A08958CB10895B5
:1006D000DC01FB0106C0992311F481E00895119615
:1006E00031969C9180819817B1F380E008951F9214
:1006F0000F920FB60F9211242F933F934F935F9356
:100700006F937F938F939F93AF93BF93EF93FF93D9
:10071000E091A800F091A900309709F00995FF91A8
:10072000EF91BF91AF919F918F917F916F915F9169
:100730004F913F912F910F900FBE0F901F901895E2
:100740001F920F920FB60F9211240F900FBE0F90B1
:100750001F90189581B5886081BD089591B5987FE7
:1007600091BD91B5982B91BD0895A895089581B537
:10077000886081BD81B5806181BD81B5877F81BD84
:10078000089581B5887F81BD81B5866081BD81B5C1
:10079000886081BD08951F93CF93DF938FB78068E2
:1007A0008FBF0E9443020E9458030E94F00281E121
:1007B00060E00E94110280E160E00E94110280E38B
:1007C00095E728EC30E0F9013197F1F70197D9F777
:1007D00011E0C8ECD0E081E10E94B402682F6127EB
:1007E00081E10E94110284EF91E0FE013197F1F75F
:1007F0000197D9F780E10E94B402682F612780E158
:100800000E94110284EF91E0FE013197F1F7019708
:08081000D9F7E1CFF894FFCF06
:1008180001010101010101020000010101010201C0
:1008280001010101010101010201010101010101AF
:1008380039003600330030003B0038003500320004
:1008480039003600330030003B00380035003200F4
:080858003A00370034003100C2
:00000001FF
