:107000000C942A380C9447380C9447380C94473821
:107010000C9447380C9447380C9447380C944738F4
:107020000C9447380C9447380C9447380C944738E4
:107030000C9447380C9447380C9447380C944738D4
:107040000C9447380C9447380C9447380C944738C4
:107050000C94473811241FBECFE5D8E0DEBFCDBF6A
:1070600010E0A0E6B0E0EAEFFCE702C005900D9268
:10707000A83AB107D9F712E0A8EAB0E001C01D9222
:10708000A833B107E1F70E946F3E0C947B3E0C944D
:107090000038EF92FF920F93DF93CF93CDB7DEB717
:1070A00060970FB6F894DEBF0FBECDBFA82F0023A8
:1070B00009F461C07E010894E11CF11C88E0F7012D
:1070C00011928A95E9F729833A834B835C836D8318
:1070D0007E83AF83988780E2801BE82FFF27E7FD40
:1070E000F0954D815E816F817885181684F01D863C
:1070F0001E861F86188A882799278E1B9F0B04C01F
:1071000076956795579547958A95D2F728C0202F91
:10711000332727FD3095DB01CA01022E04C0B69546
:10712000A795979587950A94D2F78D879E87AF8705
:10713000B88B04C0440F551F661F771FEA95D2F71E
:1071400089819A81AB81BC8104C0B695A79597953A
:1071500087952A95D2F7482B592B6A2B7B2B498789
:107160005A876B877C8729853A854B855C856D8539
:107170007E85AF8598898A2F60960FB6F894DEBF1A
:107180000FBECDBFCF91DF910F91FF90EF9008958B
:10719000EF92FF920F93DF93CF93CDB7DEB7609757
:1071A0000FB6F894DEBF0FBECDBFA82F002309F4A1
:1071B00061C07E010894E11CF11C88E0F701119286
:1071C0008A95E9F729833A834B835C836D837E83B9
:1071D000AF83988780E2801BE82FFF27E7FDF095BB
:1071E00049815A816B817C81181684F019861A8630
:1071F0001B861C86882799278E1B9F0B04C0440F73
:10720000551F661F771F8A95D2F728C0202F332776
:1072100027FD3095DB01CA01022E04C0880F991F9B
:10722000AA1FBB1F0A94D2F789879A87AB87BC87AE
:1072300004C07695679557954795EA95D2F78D8165
:107240009E81AF81B88504C0880F991FAA1FBB1FFC
:107250002A95D2F7482B592B6A2B7B2B4D875E87BB
:107260006F87788B29853A854B855C856D857E8512
:10727000AF8598898A2F60960FB6F894DEBF0FBE4F
:10728000CDBFCF91DF910F91FF90EF9008951F93A5
:107290008091A8009091A900892BB1F010E0E091B5
:1072A000A800F091A900E10FF11D80810E946B3EC2
:1072B0001F5FE091A800F091A900E10FF11D80810E
:1072C0008E3269F70E946B3E1F9108958091AA004B
:1072D000813079F0813028F08230D1F0833051F55F
:1072E0002BC00E94F43D9093A9008093A80081E0F8
:1072F0001AC08091A8009091A9000E94EB3B8130B8
:1073000011F482E010C01092AA000E94093E12C03F
:107310006091A8007091A9008BEA90E00E94703DF6
:10732000813021F483E08093AA0004C01092AA0067
:107330000E940D3E80E008950E940D3E81E0089578
:1073400080E090E00E94573D20E137E248EC50E0B9
:10735000FA013197F1F721503040D1F7803911F41B
:1073600080E9089580E70895803719F0803951F455
:1073700004C080E090E060E703C080E090E060E956
:107380000E944F3D80E197E228EC30E0F90131970F
:10739000F1F70197D9F708950F931F93CF93DF93D8
:1073A00081E160E00E94273C80E160E00E94273C90
:1073B00010E001E0C8ECD0E080E10E94CA3C682FF8
:1073C000602780E10E94273C80E197E2FE0131972F
:1073D000F1F70197D9F71F5F153071F780912B01F5
:1073E000882319F0813071F406C080E161E00E94C9
:1073F000273C81E005C080E160E00E94273C82E0FC
:1074000080932B01DF91CF911F910F9108950E94DE
:10741000CC390E94543A0E94113E80932D010E9463
:10742000573A80932C018230C1F0833028F48823AE
:1074300041F08130A1F70BC0833019F1843079F726
:1074400028C00E94A039803931F481E01FC08091AA
:107450002D01883FD1F082E019C080912D01803349
:1074600031F483E00E945A3A0E940D3ED8CF893011
:1074700019F40E949C3B09C0803B89F60E945D3A4A
:1074800004C00E946639813051F684E00E945A3A65
:10749000C6CF80E90E94B43988EF0E942E3E0E9438
:1074A000CC390C940000BBCF10922E01089580912E
:1074B0002E01089580932E0108952F923F924F92AE
:1074C0005F926F927F928F929F92AF92BF92CF9274
:1074D000DF92EF92FF920F931F93DF93CF93CDB77D
:1074E000DEB729970FB6F894DEBF0FBECDBF2AE5F1
:1074F00030E039872887222433245524772499249F
:10750000CC24DD2410E0EE24FF24888599850E9498
:10751000573DE0E1F7E2A8ECB0E01197F1F73197C1
:10752000D1F7282F30E040E050E060E070E080E0EC
:1075300090E00E2D0E94C838B22EA32E842E652E08
:10754000462EB228A328852867284928372F3C29AA
:107550003D83D82ADE82192B1F832B2C3A2C582CE2
:10756000762C942CC32E88E090E0E80EF91EE88576
:10757000F985E136F10521F03196F987E887C5CF25
:107580000E940D3EEE2419821A821B821C82222444
:1075900033245524198618860E94673E282F30E030
:1075A00040E050E060E070E080E090E008850E94FC
:1075B000C838032FF42E152FD62EC72EF9810F2B86
:1075C0003A81F32AEB811E2BFC81DF2AC228732C1F
:1075D000782A952C992AE22A0983FA821B83DC8275
:1075E0002C2C372C592C0E940D3E28853985285F7C
:1075F0003F4F398728872034310571F62E2C2B0C0C
:1076000081E02E1408F080E0302F3A0D91E0301721
:1076100008F090E0382E330E81E0331608F080E059
:10762000982B4F2D480D21E04F1508F020E0592EE2
:10763000540E81E0541608F080E0282B512F560D8F
:1076400091E0511708F090E0622E650E81E065161A
:1076500008F080E0982B6D2D640D21E06D1508F089
:1076600020E0892E860E81E0861608F080E0282B27
:107670007D817C0D81E07C1508F080E0C22EC70E74
:1076800091E0C71608F090E0892B2E81270D31E09C
:10769000271508F030E0D82ED20E91E0D21608F06F
:1076A00090E0132F192B3F81930E190D8AE590E07E
:1076B00099878887EE24FF2488ECA82EB12C9101AD
:1076C000452D562D682D7C2D8D2D912F0E2D0E9430
:1076D000493888859985622F0E944F3D80E197E265
:1076E000F5013197F1F70197D9F7E8E0F0E0EE0EF8
:1076F000FF1E288539852136310529F02F5F3F4F40
:1077000039872887DCCF29960FB6F894DEBF0FBEE5
:10771000CDBFCF91DF911F910F91FF90EF90DF9040
:10772000CF90BF90AF909F908F907F906F905F9021
:107730004F903F902F9008950E940D3E0E94673E0B
:10774000682F86E490E00E944F3D80E197E228ECAC
:1077500030E0F9013197F1F70197D9F70E940D3E1A
:107760000895982F8053262F20538A3078F42A309A
:1077700020F49295907F922B2CC0862F81548A31D1
:1077800038F59295907F6753962B23C0892F8154AB
:107790002A3060F48A31E0F4892F90E0C79734E012
:1077A000880F991F3A95E1F7922F10C08A3180F423
:1077B000862F81548A3160F4892F90E0C79724E0A6
:1077C000880F991F2A95E1F7962F9753982B01C0A0
:1077D00090E0892F0895AF92BF92CF92DF92EF92FF
:1077E000FF920F931F93CF93DF935C01EC01EE2484
:1077F000FF248701E0E0F0E00AC0888169810E94EF
:10780000B13BE80EF11C011D111D2296F60142E06C
:10781000C42ED12CCE0EDF1E8A818E3271F7EA0D76
:10782000FB1D808161810E94B13B20E09E2D9195DE
:10783000981709F421E0822FDF91CF911F910F91CA
:10784000FF90EF90DF90CF90BF90AF900895382FCA
:10785000E82FE695E695E6956623B1F0613041F5AF
:10786000F0E0EE0FFF1FE856FF4F0190F081E02D92
:107870002081377081E090E002C0880F991F3A950F
:10788000E2F7282B20830895F0E0EE0FFF1FE85663
:10789000FF4F0190F081E02D2081377081E090E072
:1078A00002C0880F991F3A95E2F780958223808362
:1078B0000895EF92FF921F93CF93DF9310E0C0E003
:1078C000D0E051E0E52EF12C212F26952695269526
:1078D000812F90E0FC01E05AFF4FE081E13031F070
:1078E000E130C8F0E23009F049C02EC0E22FF0E0EC
:1078F000EE0FFF1FE056FF4F0190F081E02D208139
:1079000087709070A70102C0440F551F8A95E2F757
:10791000242B208333C0E22FF0E0EE0FFF1FE05650
:10792000FF4F0190F081E02D208187709070A701BA
:1079300002C0440F551F8A95E2F7CA018095822341
:107940008083812F61E018C0E22FF0E0EE0FFF1F6F
:10795000E056FF4F0190F081E02D208187709070FC
:10796000A70102C0440F551F8A95E2F7CA0180950E
:1079700082238083812F60E00E94273C1F5F219635
:10798000C032D10509F0A0CFDF91CF911F91FF90B8
:10799000EF900895282FE82FE695E695E695F0E01C
:1079A000EE0FFF1FE057FF4F0190F081E02D808127
:1079B00090E0277002C0959587952A95E2F781702F
:1079C0000895E82FF0E0EE0FFF1FE857FF4F0190FA
:1079D000F081E02D60830895E82FF0E0EE0FFF1FA7
:1079E000E058FF4F0190F081E02D80810895FF92D3
:1079F0000F931F93CF93DF938B019C01DA018FB715
:107A00008F778FBFFFB607B600FCFDCFE199FECFA1
:107A100087E0000F111F221F331F8A95D1F7A8019D
:107A200083E0F80180935700E895F80111E0BA016E
:107A300060587F4F9C9111968C911197129607B6C2
:107A400000FCFDCFE199FECF382F20E0E901C90FFE
:107A5000D11D0E0110935700E89511243296E617B8
:107A6000F70741F707B600FCFDCFE199FECF85E0AF
:107A7000FA0180935700E89507B600FCFDCFE19925
:107A8000FECF81E180935700E895FFBE8FB78068F5
:107A90008FBFDF91CF911F910F91FF900895E299D1
:107AA000FECF9FBB8EBB6DBBE29AE19A0895E2992F
:107AB000FECF9FBB8EBBE09A8DB308951F93CF93EB
:107AC000DF93EC0110E0FE01E10FF11D80810E94C7
:107AD0006B3E1F5F1038B9F7DF91CF911F9108956A
:107AE000AF92BF92DF92EF92FF920F93DF93CF930B
:107AF00000D0CDB7DEB77C015B01FB0186816781D9
:107B00000E94B13B813021F580913101882339F405
:107B10001DC0F701E80FF11D90838F5F01C09FEF3B
:107B200087FFF7CF8093310160912F017091300171
:107B300080E090E0A7010E94F73C80912F01909196
:107B4000300101969093300180932F0181E041C074
:107B5000F501868167810E94B13B8823C9F5F50153
:107B6000808161810E94B13BD82E00E02DC08091C0
:107B700031019701280F311D3A832983F501E90F5F
:107B8000F11D808561850E94B13BE981FA81808386
:107B9000809131018F5F809331018038A1F4609131
:107BA0002F017091300180E090E0A7010E94F73C26
:107BB0001092310180912F019091300101969093A4
:107BC000300180932F010F5F902F990F0D1578F2E0
:107BD00080E00F900F90CF91DF910F91FF90EF9089
:107BE000DF90BF90AF900895CF93DF93C0E0D0E0D7
:107BF0000E94673E8A33E1F3FE01EE5CFE4F808314
:107C00008E3211F02196F4CF82E391E0DF91CF9193
:107C100008958DE20E946B3E08958BE20E946B3EB8
:107C2000089581E090E00E94573D20E137E248EC62
:107C300050E0FA013197F1F721503040D1F780330D
:107C400029F0803B39F0893019F406C080E30895AB
:107C500088EF089580EB089589E00895803331F02E
:107C6000883F49F481E090E068EF03C081E090E054
:107C700060E30E944F3D80E197E228EC30E0F9019B
:107C80003197F1F70197D9F70895882319F08130DA
:107C900021F402C0549A089554980895882319F045
:107CA000813021F402C0539A08955398089580B505
:107CB000826080BD80B5846080BD10BC83E389B9DB
:107CC00080E00E944E3E80E00E94453E08955F9B0A
:107CD000FECF8CB108955D9BFECF8CB908958FB710
:107CE0008F778FBF0E94593C0E94573E0E94073AEF
:0A7CF00080E090E00895F894FFCFC3
:107CFA00010101010101010200000101010102016A
:107D0A000101010101010101020101010101010158
:107D1A0039003600330030003B00380035003200AD
:107D2A0039003600330030003B003800350032009D
:087D3A003A003700340031006B
:040000030000700089
:00000001FF
