:100000000C942A000C9447000C9447000C94470071
:100010000C9447000C9447000C9447000C94470044
:100020000C9447000C9447000C9447000C94470034
:100030000C9447000C948A010C9447000C94B30173
:100040000C9447000C9447000C9447000C94470014
:100050000C94470011241FBECFE5D8E0DEBFCDBF12
:1000600010E0A0E6B0E0E0E3F4E002C005900D92FD
:10007000A83AB107D9F710E0A8EAB0E001C01D9294
:10008000AA3AB107E1F70E94DE010C9416020C9423
:100090000000382FE82FE695E695E6956623B1F047
:1000A000613041F5F0E0EE0FFF1FE856FF4F019081
:1000B000F081E02D2081377081E090E002C0880F50
:1000C000991F3A95E2F7282B20830895F0E0EE0F70
:1000D000FF1FE856FF4F0190F081E02D208137701F
:1000E00081E090E002C0880F991F3A95E2F7809571
:1000F000822380830895EF92FF921F93CF93DF9323
:1001000010E0C0E0D0E051E0E52EF12C212F269543
:1001100026952695812F90E0FC01E05AFF4FE08163
:10012000E13031F0E130C8F0E23009F049C02EC0D2
:10013000E22FF0E0EE0FFF1FE056FF4F0190F0813D
:10014000E02D208187709070A70102C0440F551FD9
:100150008A95E2F7242B208333C0E22FF0E0EE0FE4
:10016000FF1FE056FF4F0190F081E02D2081877046
:100170009070A70102C0440F551F8A95E2F7CA018B
:10018000809582238083812F61E018C0E22FF0E008
:10019000EE0FFF1FE056FF4F0190F081E02D208110
:1001A00087709070A70102C0440F551F8A95E2F72F
:1001B000CA01809582238083812F60E00E944900DC
:1001C0001F5F2196C032D10509F0A0CFDF91CF91FA
:1001D0001F91FF90EF900895282FE82FE695E69560
:1001E000E695F0E0EE0FFF1FE057FF4F0190F08122
:1001F000E02D808190E0277002C0959587952A9523
:10020000E2F781700895E82FF0E0EE0FFF1FE85746
:10021000FF4F0190F081E02D60830895E82FF0E01A
:10022000EE0FFF1FE058FF4F0190F081E02D80811D
:100230000895E299FECF9FBB8EBB6DBBE29AE19A17
:100240000895E299FECF9FBB8EBBE09A8DB30895CF
:100250008FE291E09093A9008093A80008950E94F6
:100260007901803361F48FB78F778FBF80E30E946D
:10027000540180E00E94C1010E94BD01FFCF08959A
:1002800081E090E00E94210120E137E248EC50E05B
:10029000FA013197F1F721503040D1F7803311F452
:1002A00080E3089588EF0895803331F0883F49F462
:1002B00081E090E068EF03C081E090E060E30E949D
:1002C000190180E197E228EC30E0F9013197F1F76C
:1002D0000197D9F7089580B5826080BD80B58460AC
:1002E00080BD10BC83E389B9569A539A579A549AA1
:1002F00008958CB10895DC01FB0106C0992311F427
:1003000081E00895119631969C9180819817B1F300
:1003100080E008951F920F920FB60F9211242F9331
:100320003F934F935F936F937F938F939F93AF937D
:10033000BF93EF93FF93E091A800F091A90030974D
:1003400009F00995FF91EF91BF91AF919F918F9126
:100350007F916F915F914F913F912F910F900FBEC1
:100360000F901F9018951F920F920FB60F921124A5
:100370000F900FBE0F901F90189581B5886081BDBA
:10038000089591B5987F91BD91B5982B91BD089531
:10039000A895089581B5886081BD81B5806181BDD2
:1003A00081B5877F81BD089581B5887F81BD81B585
:1003B000866081BD81B5886081BD08951F93CF930C
:1003C000DF938FB780688FBF0E947B000E946B0114
:1003D0000E94280181E160E00E94490080E160E024
:1003E0000E94490080E395E728EC30E0F90131975D
:1003F000F1F70197D9F711E0C8ECD0E081E10E9454
:10040000EC00682F612781E10E94490080E10E9491
:10041000EC00682F612780E10E94490080E197E2AB
:10042000FE013197F1F70197D9F7E8CFF894FFCFA4
:1004300001010101010101020000010101010201AC
:10044000010101010101010102010101010101019B
:1004500039003600330030003B00380035003200F0
:1004600039003600330030003B00380035003200E0
:080470003A00370034003100AE
:00000001FF
