:107000000C942A380C9447380C9447380C94473821
:107010000C9447380C9447380C9447380C944738F4
:107020000C9447380C9447380C9447380C944738E4
:107030000C9447380C9447380C9447380C944738D4
:107040000C9447380C9447380C9447380C944738C4
:107050000C94473811241FBECFE5D8E0DEBFCDBF6A
:1070600010E0A0E6B0E0E8EFF7E702C005900D926F
:10707000A83AB107D9F712E0A8EAB0E001C01D9222
:10708000A533B107E1F70E94AE3B0C94FA3B0C9498
:1070900000381F938091A8009091A900892BB1F02E
:1070A00010E0E091A800F091A900E10FF11D8081AE
:1070B0000E947F3B1F5FE091A800F091A900E10FC3
:1070C000F11D80818E3269F70E947F3B1F910895E8
:1070D0008091AA00813079F0813028F08230D1F09F
:1070E000833051F52BC00E94113B9093A9008093EF
:1070F000A80081E01AC08091A8009091A9000E9488
:107100000839813011F482E010C01092AA000E9468
:10711000263B12C06091A8007091A9008BEA90E014
:107120000E948D3A813021F483E08093AA0004C04C
:107130001092AA000E942A3B80E008950E942A3BF8
:1071400081E0089580E090E00E94743A20E137E207
:1071500048EC50E0FA013197F1F721503040D1F777
:10716000803911F480E9089580E70895803719F097
:10717000803951F404C080E090E060E703C080E013
:1071800090E060E90E946C3A80E197E228EC30E000
:10719000F9013197F1F70197D9F70895982F8053A6
:1071A000262F20538A3078F42A3020F49295907F4D
:1071B000922B2CC0862F81548A3138F59295907F7E
:1071C0006753962B23C0892F81542A3060F48A316B
:1071D000E0F4892F90E0C79734E0880F991F3A9523
:1071E000E1F7922F10C08A3180F4862F81548A31C2
:1071F00060F4892F90E0C79724E0880F991F2A95A3
:10720000E1F7962F9753982B01C090E0892F0895AE
:10721000AF92BF92CF92DF92EF92FF920F931F93A4
:10722000CF93DF935C01EC01EE24FF248701E0E0C3
:10723000F0E00AC0888169810E94CE38E80EF11C16
:10724000011D111D2296F60142E0C42ED12CCE0E56
:10725000DF1E8A818E3271F7EA0DFB1D808161810C
:107260000E94CE3820E09E2D9195981709F421E0D8
:10727000822FDF91CF911F910F91FF90EF90DF90C0
:10728000CF90BF90AF900895382FE82FE695E69500
:10729000E6956623B1F0613041F5F0E0EE0FFF1F97
:1072A000E856FF4F0190F081E02D2081377081E09A
:1072B00090E002C0880F991F3A95E2F7282B2083AF
:1072C0000895F0E0EE0FFF1FE856FF4F0190F081A8
:1072D000E02D2081377081E090E002C0880F991F77
:1072E0003A95E2F78095822380830895EF92FF928A
:1072F0001F93CF93DF9310E0C0E0D0E051E0E52E84
:10730000F12C212F269526952695812F90E0FC01C2
:10731000E05AFF4FE081E13031F0E130C8F0E23077
:1073200009F049C02EC0E22FF0E0EE0FFF1FE0563B
:10733000FF4F0190F081E02D208187709070A701B0
:1073400002C0440F551F8A95E2F7242B208333C0D7
:10735000E22FF0E0EE0FFF1FE056FF4F0190F081AB
:10736000E02D208187709070A70102C0440F551F47
:107370008A95E2F7CA01809582238083812F61E09C
:1073800018C0E22FF0E0EE0FFF1FE056FF4F019014
:10739000F081E02D208187709070A70102C0440F1A
:1073A000551F8A95E2F7CA01809582238083812F39
:1073B00060E00E9444391F5F2196C032D10509F078
:1073C000A0CFDF91CF911F91FF90EF900895282FCC
:1073D000E82FE695E695E695F0E0EE0FFF1FE05703
:1073E000FF4F0190F081E02D808190E0277002C076
:1073F000959587952A95E2F781700895E82FF0E03A
:10740000EE0FFF1FE857FF4F0190F081E02D6083E2
:107410000895E82FF0E0EE0FFF1FE058FF4F0190B6
:10742000F081E02D80810895FF920F931F93CF93F9
:10743000DF938B019C01DA018FB78F778FBFFFB687
:1074400007B600FCFDCFE199FECF87E0000F111FCA
:10745000221F331F8A95D1F7A80183E0F80180939A
:107460005700E895F80111E0BA0160587F4F9C91F0
:1074700011968C911197129607B600FCFDCFE199F9
:10748000FECF382F20E0E901C90FD11D0E01109366
:107490005700E89511243296E617F70741F707B62B
:1074A00000FCFDCFE199FECF85E0FA018093570003
:1074B000E89507B600FCFDCFE199FECF81E180930E
:1074C0005700E895FFBE8FB780688FBFDF91CF91DF
:1074D0001F910F91FF900895E299FECF9FBB8EBB45
:1074E0006DBBE29AE19A0895E299FECF9FBB8EBBF5
:1074F000E09A8DB308951F93CF93DF93EC0110E0D2
:10750000FE01E10FF11D80810E947F3B1F5F10385B
:10751000B9F7DF91CF911F910895AF92BF92DF929B
:10752000EF92FF920F93DF93CF9300D0CDB7DEB7EA
:107530007C015B01FB01868167810E94CE3881302E
:1075400021F580912D01882339F41DC0F701E80F42
:10755000F11D90838F5F01C09FEF87FFF7CF80936E
:107560002D0160912B0170912C0180E090E0A7012A
:107570000E94143A80912B0190912C0101969093D6
:107580002C0180932B0181E041C0F5018681678148
:107590000E94CE388823C9F5F501808161810E945F
:1075A000CE38D82E00E02DC080912D019701280FF4
:1075B000311D3A832983F501E90FF11D808561852D
:1075C0000E94CE38E981FA81808380912D018F5FFE
:1075D00080932D018038A1F460912B0170912C01D2
:1075E00080E090E0A7010E94143A10922D01809152
:1075F0002B0190912C01019690932C0180932B01EB
:107600000F5F902F990F0D1578F280E00F900F907B
:10761000CF91DF910F91FF90EF90DF90BF90AF90EF
:107620000895CF93DF93C0E0D0E00E947B3B8A3384
:10763000E1F3FE01E25DFE4F80838E3211F0219670
:10764000F4CF8EE291E0DF91CF9108958DE20E9418
:107650007F3B08958BE20E947F3B089581E090E09C
:107660000E94743A20E137E248EC50E0FA01319789
:10767000F1F721503040D1F7803311F480E30895C1
:1076800088EF0895803331F0883F49F481E090E03D
:1076900068EF03C081E090E060E30E946C3A80E113
:1076A00097E228EC30E0F9013197F1F70197D9F72B
:1076B0000895882319F0813021F402C0549A089566
:1076C00054980895882319F0813021F402C0539A08
:1076D00008955398089580B5826080BD80B5846018
:1076E00080BD10BC83E389B980E00E94623B80E0EA
:1076F0000E94593B08955F9BFECF8CB108955D9B1E
:10770000FECF8CB908950F931F93CF93DF9381E140
:1077100060E00E94443980E160E00E94443910E05A
:1077200001E0C8ECD0E080E10E94E739682F6027D3
:1077300080E10E94443980E197E2FE013197F1F740
:107740000197D9F71F5F153071F780E161E00E9462
:107750004439DF91CF911F910F910895EF92FF92DD
:107760000F931F938FB78F778FBF0E9476390E9438
:107770006B3B0E94833B04E012E0EE24E39483E041
:10778000F82E809134028230D1F0833028F488239F
:1077900041F08130C1F70CC08330D1F0843099F7CB
:1077A0001EC00E94A238803939F4E0923402E9CF39
:1077B0000E942E3B883F81F010933402E2CF0E945A
:1077C0002E3B8033F1F6F09234020E942A3BD9CF4F
:1077D0000E9468388130A9F600933402D2CF80E944
:1077E0000E94B63888EF0E94423B0E94833B0C9473
:0877F0000000C7CFF894FFCFA1
:1077F8000101010101010102000001010101020171
:10780800010101010101010102010101010101015F
:1078180039003600330030003B00380035003200B4
:1078280039003600330030003B00380035003200A4
:087838003A0037003400310072
:040000030000700089
:00000001FF
